{
	"data": {
		"bytecode": {
			"linkReferences": {},
			"object": "60806040526040518060600160405280602e815260200162000c56602e91396000908051906020019061003392919061004b565b50600060025534801561004557600080fd5b5061014f565b828054610057906100ee565b90600052602060002090601f01602090048101928261007957600085556100c0565b82601f1061009257805160ff19168380011785556100c0565b828001600101855582156100c0579182015b828111156100bf5782518255916020019190600101906100a4565b5b5090506100cd91906100d1565b5090565b5b808211156100ea5760008160009055506001016100d2565b5090565b6000600282049050600182168061010657607f821691505b6020821081141561011a57610119610120565b5b50919050565b7f4e487b7100000000000000000000000000000000000000000000000000000000600052602260045260246000fd5b610af7806200015f6000396000f3fe608060405234801561001057600080fd5b50600436106100415760003560e01c80636362348114610046578063d09ef24114610062578063ec0fcdeb14610092575b600080fd5b610060600480360381019061005b91906105ab565b6100b0565b005b61007c60048036038101906100779190610652565b6101a6565b604051610089919061085b565b60405180910390f35b61009a61039c565b6040516100a79190610839565b60405180910390f35b6000600260008154809291906100c59061097f565b9190505590506000600160008381526020019081526020016000209050818160000181905550878160010160006101000a81548173ffffffffffffffffffffffffffffffffffffffff021916908373ffffffffffffffffffffffffffffffffffffffff160217905550868682600201919061014192919061042a565b50848482600301919061015592919061042a565b508281600401819055507f21b9d1334b0aac506d00a950bc6ac893526a212dd55ebdacefd296307c14a2fa8886868660405161019494939291906107f9565b60405180910390a15050505050505050565b6101ae6104b0565b600160008381526020019081526020016000206040518060c0016040529081600082015481526020016001820160009054906101000a900473ffffffffffffffffffffffffffffffffffffffff1673ffffffffffffffffffffffffffffffffffffffff1673ffffffffffffffffffffffffffffffffffffffff16815260200160028201805461023c9061094d565b80601f01602080910402602001604051908101604052809291908181526020018280546102689061094d565b80156102b55780601f1061028a576101008083540402835291602001916102b5565b820191906000526020600020905b81548152906001019060200180831161029857829003601f168201915b505050505081526020016003820180546102ce9061094d565b80601f01602080910402602001604051908101604052809291908181526020018280546102fa9061094d565b80156103475780601f1061031c57610100808354040283529160200191610347565b820191906000526020600020905b81548152906001019060200180831161032a57829003601f168201915b50505050508152602001600482015481526020016005820160009054906101000a900460ff16600281111561037f5761037e6109f7565b5b6002811115610391576103906109f7565b5b815250509050919050565b600080546103a99061094d565b80601f01602080910402602001604051908101604052809291908181526020018280546103d59061094d565b80156104225780601f106103f757610100808354040283529160200191610422565b820191906000526020600020905b81548152906001019060200180831161040557829003601f168201915b505050505081565b8280546104369061094d565b90600052602060002090601f016020900481019282610458576000855561049f565b82601f1061047157803560ff191683800117855561049f565b8280016001018555821561049f579182015b8281111561049e578235825591602001919060010190610483565b5b5090506104ac919061050e565b5090565b6040518060c0016040528060008152602001600073ffffffffffffffffffffffffffffffffffffffff16815260200160608152602001606081526020016000815260200160006002811115610508576105076109f7565b5b81525090565b5b8082111561052757600081600090555060010161050f565b5090565b60008135905061053a81610a93565b92915050565b60008083601f84011261055657610555610a5a565b5b8235905067ffffffffffffffff81111561057357610572610a55565b5b60208301915083600182028301111561058f5761058e610a5f565b5b9250929050565b6000813590506105a581610aaa565b92915050565b600080600080600080608087890312156105c8576105c7610a69565b5b60006105d689828a0161052b565b965050602087013567ffffffffffffffff8111156105f7576105f6610a64565b5b61060389828a01610540565b9550955050604087013567ffffffffffffffff81111561062657610625610a64565b5b61063289828a01610540565b9350935050606061064589828a01610596565b9150509295509295509295565b60006020828403121561066857610667610a69565b5b600061067684828501610596565b91505092915050565b610688816108aa565b82525050565b610697816108aa565b82525050565b6106a6816108f9565b82525050565b60006106b88385610899565b93506106c583858461090b565b6106ce83610a6e565b840190509392505050565b60006106e48261087d565b6106ee8185610888565b93506106fe81856020860161091a565b61070781610a6e565b840191505092915050565b600061071d8261087d565b6107278185610899565b935061073781856020860161091a565b61074081610a6e565b840191505092915050565b600060c08301600083015161076360008601826107db565b506020830151610776602086018261067f565b506040830151848203604086015261078e82826106d9565b915050606083015184820360608601526107a882826106d9565b91505060808301516107bd60808601826107db565b5060a08301516107d060a086018261069d565b508091505092915050565b6107e4816108ef565b82525050565b6107f3816108ef565b82525050565b600060608201905061080e600083018761068e565b81810360208301526108218185876106ac565b905061083060408301846107ea565b95945050505050565b600060208201905081810360008301526108538184610712565b905092915050565b60006020820190508181036000830152610875818461074b565b905092915050565b600081519050919050565b600082825260208201905092915050565b600082825260208201905092915050565b60006108b5826108cf565b9050919050565b60008190506108ca82610a7f565b919050565b600073ffffffffffffffffffffffffffffffffffffffff82169050919050565b6000819050919050565b6000610904826108bc565b9050919050565b82818337600083830152505050565b60005b8381101561093857808201518184015260208101905061091d565b83811115610947576000848401525b50505050565b6000600282049050600182168061096557607f821691505b6020821081141561097957610978610a26565b5b50919050565b600061098a826108ef565b91507fffffffffffffffffffffffffffffffffffffffffffffffffffffffffffffffff8214156109bd576109bc6109c8565b5b600182019050919050565b7f4e487b7100000000000000000000000000000000000000000000000000000000600052601160045260246000fd5b7f4e487b7100000000000000000000000000000000000000000000000000000000600052602160045260246000fd5b7f4e487b7100000000000000000000000000000000000000000000000000000000600052602260045260246000fd5b600080fd5b600080fd5b600080fd5b600080fd5b600080fd5b6000601f19601f8301169050919050565b60038110610a9057610a8f6109f7565b5b50565b610a9c816108aa565b8114610aa757600080fd5b50565b610ab3816108ef565b8114610abe57600080fd5b5056fea2646970667358221220cf09f15310c9730ee945245a47c6a87394ac2f72b2c6bfb96a72af9b2b020da364736f6c63430008070033516d61697145446352746f38434751536e714d4455486b6f746e4b486a6d41706d48534a4e75737454417061596d",
			"opcodes": "PUSH1 0x80 PUSH1 0x40 MSTORE PUSH1 0x40 MLOAD DUP1 PUSH1 0x60 ADD PUSH1 0x40 MSTORE DUP1 PUSH1 0x2E DUP2 MSTORE PUSH1 0x20 ADD PUSH3 0xC56 PUSH1 0x2E SWAP2 CODECOPY PUSH1 0x0 SWAP1 DUP1 MLOAD SWAP1 PUSH1 0x20 ADD SWAP1 PUSH2 0x33 SWAP3 SWAP2 SWAP1 PUSH2 0x4B JUMP JUMPDEST POP PUSH1 0x0 PUSH1 0x2 SSTORE CALLVALUE DUP1 ISZERO PUSH2 0x45 JUMPI PUSH1 0x0 DUP1 REVERT JUMPDEST POP PUSH2 0x14F JUMP JUMPDEST DUP3 DUP1 SLOAD PUSH2 0x57 SWAP1 PUSH2 0xEE JUMP JUMPDEST SWAP1 PUSH1 0x0 MSTORE PUSH1 0x20 PUSH1 0x0 KECCAK256 SWAP1 PUSH1 0x1F ADD PUSH1 0x20 SWAP1 DIV DUP2 ADD SWAP3 DUP3 PUSH2 0x79 JUMPI PUSH1 0x0 DUP6 SSTORE PUSH2 0xC0 JUMP JUMPDEST DUP3 PUSH1 0x1F LT PUSH2 0x92 JUMPI DUP1 MLOAD PUSH1 0xFF NOT AND DUP4 DUP1 ADD OR DUP6 SSTORE PUSH2 0xC0 JUMP JUMPDEST DUP3 DUP1 ADD PUSH1 0x1 ADD DUP6 SSTORE DUP3 ISZERO PUSH2 0xC0 JUMPI SWAP2 DUP3 ADD JUMPDEST DUP3 DUP2 GT ISZERO PUSH2 0xBF JUMPI DUP3 MLOAD DUP3 SSTORE SWAP2 PUSH1 0x20 ADD SWAP2 SWAP1 PUSH1 0x1 ADD SWAP1 PUSH2 0xA4 JUMP JUMPDEST JUMPDEST POP SWAP1 POP PUSH2 0xCD SWAP2 SWAP1 PUSH2 0xD1 JUMP JUMPDEST POP SWAP1 JUMP JUMPDEST JUMPDEST DUP1 DUP3 GT ISZERO PUSH2 0xEA JUMPI PUSH1 0x0 DUP2 PUSH1 0x0 SWAP1 SSTORE POP PUSH1 0x1 ADD PUSH2 0xD2 JUMP JUMPDEST POP SWAP1 JUMP JUMPDEST PUSH1 0x0 PUSH1 0x2 DUP3 DIV SWAP1 POP PUSH1 0x1 DUP3 AND DUP1 PUSH2 0x106 JUMPI PUSH1 0x7F DUP3 AND SWAP2 POP JUMPDEST PUSH1 0x20 DUP3 LT DUP2 EQ ISZERO PUSH2 0x11A JUMPI PUSH2 0x119 PUSH2 0x120 JUMP JUMPDEST JUMPDEST POP SWAP2 SWAP1 POP JUMP JUMPDEST PUSH32 0x4E487B7100000000000000000000000000000000000000000000000000000000 PUSH1 0x0 MSTORE PUSH1 0x22 PUSH1 0x4 MSTORE PUSH1 0x24 PUSH1 0x0 REVERT JUMPDEST PUSH2 0xAF7 DUP1 PUSH3 0x15F PUSH1 0x0 CODECOPY PUSH1 0x0 RETURN INVALID PUSH1 0x80 PUSH1 0x40 MSTORE CALLVALUE DUP1 ISZERO PUSH2 0x10 JUMPI PUSH1 0x0 DUP1 REVERT JUMPDEST POP PUSH1 0x4 CALLDATASIZE LT PUSH2 0x41 JUMPI PUSH1 0x0 CALLDATALOAD PUSH1 0xE0 SHR DUP1 PUSH4 0x63623481 EQ PUSH2 0x46 JUMPI DUP1 PUSH4 0xD09EF241 EQ PUSH2 0x62 JUMPI DUP1 PUSH4 0xEC0FCDEB EQ PUSH2 0x92 JUMPI JUMPDEST PUSH1 0x0 DUP1 REVERT JUMPDEST PUSH2 0x60 PUSH1 0x4 DUP1 CALLDATASIZE SUB DUP2 ADD SWAP1 PUSH2 0x5B SWAP2 SWAP1 PUSH2 0x5AB JUMP JUMPDEST PUSH2 0xB0 JUMP JUMPDEST STOP JUMPDEST PUSH2 0x7C PUSH1 0x4 DUP1 CALLDATASIZE SUB DUP2 ADD SWAP1 PUSH2 0x77 SWAP2 SWAP1 PUSH2 0x652 JUMP JUMPDEST PUSH2 0x1A6 JUMP JUMPDEST PUSH1 0x40 MLOAD PUSH2 0x89 SWAP2 SWAP1 PUSH2 0x85B JUMP JUMPDEST PUSH1 0x40 MLOAD DUP1 SWAP2 SUB SWAP1 RETURN JUMPDEST PUSH2 0x9A PUSH2 0x39C JUMP JUMPDEST PUSH1 0x40 MLOAD PUSH2 0xA7 SWAP2 SWAP1 PUSH2 0x839 JUMP JUMPDEST PUSH1 0x40 MLOAD DUP1 SWAP2 SUB SWAP1 RETURN JUMPDEST PUSH1 0x0 PUSH1 0x2 PUSH1 0x0 DUP2 SLOAD DUP1 SWAP3 SWAP2 SWAP1 PUSH2 0xC5 SWAP1 PUSH2 0x97F JUMP JUMPDEST SWAP2 SWAP1 POP SSTORE SWAP1 POP PUSH1 0x0 PUSH1 0x1 PUSH1 0x0 DUP4 DUP2 MSTORE PUSH1 0x20 ADD SWAP1 DUP2 MSTORE PUSH1 0x20 ADD PUSH1 0x0 KECCAK256 SWAP1 POP DUP2 DUP2 PUSH1 0x0 ADD DUP2 SWAP1 SSTORE POP DUP8 DUP2 PUSH1 0x1 ADD PUSH1 0x0 PUSH2 0x100 EXP DUP2 SLOAD DUP2 PUSH20 0xFFFFFFFFFFFFFFFFFFFFFFFFFFFFFFFFFFFFFFFF MUL NOT AND SWAP1 DUP4 PUSH20 0xFFFFFFFFFFFFFFFFFFFFFFFFFFFFFFFFFFFFFFFF AND MUL OR SWAP1 SSTORE POP DUP7 DUP7 DUP3 PUSH1 0x2 ADD SWAP2 SWAP1 PUSH2 0x141 SWAP3 SWAP2 SWAP1 PUSH2 0x42A JUMP JUMPDEST POP DUP5 DUP5 DUP3 PUSH1 0x3 ADD SWAP2 SWAP1 PUSH2 0x155 SWAP3 SWAP2 SWAP1 PUSH2 0x42A JUMP JUMPDEST POP DUP3 DUP2 PUSH1 0x4 ADD DUP2 SWAP1 SSTORE POP PUSH32 0x21B9D1334B0AAC506D00A950BC6AC893526A212DD55EBDACEFD296307C14A2FA DUP9 DUP7 DUP7 DUP7 PUSH1 0x40 MLOAD PUSH2 0x194 SWAP5 SWAP4 SWAP3 SWAP2 SWAP1 PUSH2 0x7F9 JUMP JUMPDEST PUSH1 0x40 MLOAD DUP1 SWAP2 SUB SWAP1 LOG1 POP POP POP POP POP POP POP POP JUMP JUMPDEST PUSH2 0x1AE PUSH2 0x4B0 JUMP JUMPDEST PUSH1 0x1 PUSH1 0x0 DUP4 DUP2 MSTORE PUSH1 0x20 ADD SWAP1 DUP2 MSTORE PUSH1 0x20 ADD PUSH1 0x0 KECCAK256 PUSH1 0x40 MLOAD DUP1 PUSH1 0xC0 ADD PUSH1 0x40 MSTORE SWAP1 DUP2 PUSH1 0x0 DUP3 ADD SLOAD DUP2 MSTORE PUSH1 0x20 ADD PUSH1 0x1 DUP3 ADD PUSH1 0x0 SWAP1 SLOAD SWAP1 PUSH2 0x100 EXP SWAP1 DIV PUSH20 0xFFFFFFFFFFFFFFFFFFFFFFFFFFFFFFFFFFFFFFFF AND PUSH20 0xFFFFFFFFFFFFFFFFFFFFFFFFFFFFFFFFFFFFFFFF AND PUSH20 0xFFFFFFFFFFFFFFFFFFFFFFFFFFFFFFFFFFFFFFFF AND DUP2 MSTORE PUSH1 0x20 ADD PUSH1 0x2 DUP3 ADD DUP1 SLOAD PUSH2 0x23C SWAP1 PUSH2 0x94D JUMP JUMPDEST DUP1 PUSH1 0x1F ADD PUSH1 0x20 DUP1 SWAP2 DIV MUL PUSH1 0x20 ADD PUSH1 0x40 MLOAD SWAP1 DUP2 ADD PUSH1 0x40 MSTORE DUP1 SWAP3 SWAP2 SWAP1 DUP2 DUP2 MSTORE PUSH1 0x20 ADD DUP3 DUP1 SLOAD PUSH2 0x268 SWAP1 PUSH2 0x94D JUMP JUMPDEST DUP1 ISZERO PUSH2 0x2B5 JUMPI DUP1 PUSH1 0x1F LT PUSH2 0x28A JUMPI PUSH2 0x100 DUP1 DUP4 SLOAD DIV MUL DUP4 MSTORE SWAP2 PUSH1 0x20 ADD SWAP2 PUSH2 0x2B5 JUMP JUMPDEST DUP3 ADD SWAP2 SWAP1 PUSH1 0x0 MSTORE PUSH1 0x20 PUSH1 0x0 KECCAK256 SWAP1 JUMPDEST DUP2 SLOAD DUP2 MSTORE SWAP1 PUSH1 0x1 ADD SWAP1 PUSH1 0x20 ADD DUP1 DUP4 GT PUSH2 0x298 JUMPI DUP3 SWAP1 SUB PUSH1 0x1F AND DUP3 ADD SWAP2 JUMPDEST POP POP POP POP POP DUP2 MSTORE PUSH1 0x20 ADD PUSH1 0x3 DUP3 ADD DUP1 SLOAD PUSH2 0x2CE SWAP1 PUSH2 0x94D JUMP JUMPDEST DUP1 PUSH1 0x1F ADD PUSH1 0x20 DUP1 SWAP2 DIV MUL PUSH1 0x20 ADD PUSH1 0x40 MLOAD SWAP1 DUP2 ADD PUSH1 0x40 MSTORE DUP1 SWAP3 SWAP2 SWAP1 DUP2 DUP2 MSTORE PUSH1 0x20 ADD DUP3 DUP1 SLOAD PUSH2 0x2FA SWAP1 PUSH2 0x94D JUMP JUMPDEST DUP1 ISZERO PUSH2 0x347 JUMPI DUP1 PUSH1 0x1F LT PUSH2 0x31C JUMPI PUSH2 0x100 DUP1 DUP4 SLOAD DIV MUL DUP4 MSTORE SWAP2 PUSH1 0x20 ADD SWAP2 PUSH2 0x347 JUMP JUMPDEST DUP3 ADD SWAP2 SWAP1 PUSH1 0x0 MSTORE PUSH1 0x20 PUSH1 0x0 KECCAK256 SWAP1 JUMPDEST DUP2 SLOAD DUP2 MSTORE SWAP1 PUSH1 0x1 ADD SWAP1 PUSH1 0x20 ADD DUP1 DUP4 GT PUSH2 0x32A JUMPI DUP3 SWAP1 SUB PUSH1 0x1F AND DUP3 ADD SWAP2 JUMPDEST POP POP POP POP POP DUP2 MSTORE PUSH1 0x20 ADD PUSH1 0x4 DUP3 ADD SLOAD DUP2 MSTORE PUSH1 0x20 ADD PUSH1 0x5 DUP3 ADD PUSH1 0x0 SWAP1 SLOAD SWAP1 PUSH2 0x100 EXP SWAP1 DIV PUSH1 0xFF AND PUSH1 0x2 DUP2 GT ISZERO PUSH2 0x37F JUMPI PUSH2 0x37E PUSH2 0x9F7 JUMP JUMPDEST JUMPDEST PUSH1 0x2 DUP2 GT ISZERO PUSH2 0x391 JUMPI PUSH2 0x390 PUSH2 0x9F7 JUMP JUMPDEST JUMPDEST DUP2 MSTORE POP POP SWAP1 POP SWAP2 SWAP1 POP JUMP JUMPDEST PUSH1 0x0 DUP1 SLOAD PUSH2 0x3A9 SWAP1 PUSH2 0x94D JUMP JUMPDEST DUP1 PUSH1 0x1F ADD PUSH1 0x20 DUP1 SWAP2 DIV MUL PUSH1 0x20 ADD PUSH1 0x40 MLOAD SWAP1 DUP2 ADD PUSH1 0x40 MSTORE DUP1 SWAP3 SWAP2 SWAP1 DUP2 DUP2 MSTORE PUSH1 0x20 ADD DUP3 DUP1 SLOAD PUSH2 0x3D5 SWAP1 PUSH2 0x94D JUMP JUMPDEST DUP1 ISZERO PUSH2 0x422 JUMPI DUP1 PUSH1 0x1F LT PUSH2 0x3F7 JUMPI PUSH2 0x100 DUP1 DUP4 SLOAD DIV MUL DUP4 MSTORE SWAP2 PUSH1 0x20 ADD SWAP2 PUSH2 0x422 JUMP JUMPDEST DUP3 ADD SWAP2 SWAP1 PUSH1 0x0 MSTORE PUSH1 0x20 PUSH1 0x0 KECCAK256 SWAP1 JUMPDEST DUP2 SLOAD DUP2 MSTORE SWAP1 PUSH1 0x1 ADD SWAP1 PUSH1 0x20 ADD DUP1 DUP4 GT PUSH2 0x405 JUMPI DUP3 SWAP1 SUB PUSH1 0x1F AND DUP3 ADD SWAP2 JUMPDEST POP POP POP POP POP DUP2 JUMP JUMPDEST DUP3 DUP1 SLOAD PUSH2 0x436 SWAP1 PUSH2 0x94D JUMP JUMPDEST SWAP1 PUSH1 0x0 MSTORE PUSH1 0x20 PUSH1 0x0 KECCAK256 SWAP1 PUSH1 0x1F ADD PUSH1 0x20 SWAP1 DIV DUP2 ADD SWAP3 DUP3 PUSH2 0x458 JUMPI PUSH1 0x0 DUP6 SSTORE PUSH2 0x49F JUMP JUMPDEST DUP3 PUSH1 0x1F LT PUSH2 0x471 JUMPI DUP1 CALLDATALOAD PUSH1 0xFF NOT AND DUP4 DUP1 ADD OR DUP6 SSTORE PUSH2 0x49F JUMP JUMPDEST DUP3 DUP1 ADD PUSH1 0x1 ADD DUP6 SSTORE DUP3 ISZERO PUSH2 0x49F JUMPI SWAP2 DUP3 ADD JUMPDEST DUP3 DUP2 GT ISZERO PUSH2 0x49E JUMPI DUP3 CALLDATALOAD DUP3 SSTORE SWAP2 PUSH1 0x20 ADD SWAP2 SWAP1 PUSH1 0x1 ADD SWAP1 PUSH2 0x483 JUMP JUMPDEST JUMPDEST POP SWAP1 POP PUSH2 0x4AC SWAP2 SWAP1 PUSH2 0x50E JUMP JUMPDEST POP SWAP1 JUMP JUMPDEST PUSH1 0x40 MLOAD DUP1 PUSH1 0xC0 ADD PUSH1 0x40 MSTORE DUP1 PUSH1 0x0 DUP2 MSTORE PUSH1 0x20 ADD PUSH1 0x0 PUSH20 0xFFFFFFFFFFFFFFFFFFFFFFFFFFFFFFFFFFFFFFFF AND DUP2 MSTORE PUSH1 0x20 ADD PUSH1 0x60 DUP2 MSTORE PUSH1 0x20 ADD PUSH1 0x60 DUP2 MSTORE PUSH1 0x20 ADD PUSH1 0x0 DUP2 MSTORE PUSH1 0x20 ADD PUSH1 0x0 PUSH1 0x2 DUP2 GT ISZERO PUSH2 0x508 JUMPI PUSH2 0x507 PUSH2 0x9F7 JUMP JUMPDEST JUMPDEST DUP2 MSTORE POP SWAP1 JUMP JUMPDEST JUMPDEST DUP1 DUP3 GT ISZERO PUSH2 0x527 JUMPI PUSH1 0x0 DUP2 PUSH1 0x0 SWAP1 SSTORE POP PUSH1 0x1 ADD PUSH2 0x50F JUMP JUMPDEST POP SWAP1 JUMP JUMPDEST PUSH1 0x0 DUP2 CALLDATALOAD SWAP1 POP PUSH2 0x53A DUP2 PUSH2 0xA93 JUMP JUMPDEST SWAP3 SWAP2 POP POP JUMP JUMPDEST PUSH1 0x0 DUP1 DUP4 PUSH1 0x1F DUP5 ADD SLT PUSH2 0x556 JUMPI PUSH2 0x555 PUSH2 0xA5A JUMP JUMPDEST JUMPDEST DUP3 CALLDATALOAD SWAP1 POP PUSH8 0xFFFFFFFFFFFFFFFF DUP2 GT ISZERO PUSH2 0x573 JUMPI PUSH2 0x572 PUSH2 0xA55 JUMP JUMPDEST JUMPDEST PUSH1 0x20 DUP4 ADD SWAP2 POP DUP4 PUSH1 0x1 DUP3 MUL DUP4 ADD GT ISZERO PUSH2 0x58F JUMPI PUSH2 0x58E PUSH2 0xA5F JUMP JUMPDEST JUMPDEST SWAP3 POP SWAP3 SWAP1 POP JUMP JUMPDEST PUSH1 0x0 DUP2 CALLDATALOAD SWAP1 POP PUSH2 0x5A5 DUP2 PUSH2 0xAAA JUMP JUMPDEST SWAP3 SWAP2 POP POP JUMP JUMPDEST PUSH1 0x0 DUP1 PUSH1 0x0 DUP1 PUSH1 0x0 DUP1 PUSH1 0x80 DUP8 DUP10 SUB SLT ISZERO PUSH2 0x5C8 JUMPI PUSH2 0x5C7 PUSH2 0xA69 JUMP JUMPDEST JUMPDEST PUSH1 0x0 PUSH2 0x5D6 DUP10 DUP3 DUP11 ADD PUSH2 0x52B JUMP JUMPDEST SWAP7 POP POP PUSH1 0x20 DUP8 ADD CALLDATALOAD PUSH8 0xFFFFFFFFFFFFFFFF DUP2 GT ISZERO PUSH2 0x5F7 JUMPI PUSH2 0x5F6 PUSH2 0xA64 JUMP JUMPDEST JUMPDEST PUSH2 0x603 DUP10 DUP3 DUP11 ADD PUSH2 0x540 JUMP JUMPDEST SWAP6 POP SWAP6 POP POP PUSH1 0x40 DUP8 ADD CALLDATALOAD PUSH8 0xFFFFFFFFFFFFFFFF DUP2 GT ISZERO PUSH2 0x626 JUMPI PUSH2 0x625 PUSH2 0xA64 JUMP JUMPDEST JUMPDEST PUSH2 0x632 DUP10 DUP3 DUP11 ADD PUSH2 0x540 JUMP JUMPDEST SWAP4 POP SWAP4 POP POP PUSH1 0x60 PUSH2 0x645 DUP10 DUP3 DUP11 ADD PUSH2 0x596 JUMP JUMPDEST SWAP2 POP POP SWAP3 SWAP6 POP SWAP3 SWAP6 POP SWAP3 SWAP6 JUMP JUMPDEST PUSH1 0x0 PUSH1 0x20 DUP3 DUP5 SUB SLT ISZERO PUSH2 0x668 JUMPI PUSH2 0x667 PUSH2 0xA69 JUMP JUMPDEST JUMPDEST PUSH1 0x0 PUSH2 0x676 DUP5 DUP3 DUP6 ADD PUSH2 0x596 JUMP JUMPDEST SWAP2 POP POP SWAP3 SWAP2 POP POP JUMP JUMPDEST PUSH2 0x688 DUP2 PUSH2 0x8AA JUMP JUMPDEST DUP3 MSTORE POP POP JUMP JUMPDEST PUSH2 0x697 DUP2 PUSH2 0x8AA JUMP JUMPDEST DUP3 MSTORE POP POP JUMP JUMPDEST PUSH2 0x6A6 DUP2 PUSH2 0x8F9 JUMP JUMPDEST DUP3 MSTORE POP POP JUMP JUMPDEST PUSH1 0x0 PUSH2 0x6B8 DUP4 DUP6 PUSH2 0x899 JUMP JUMPDEST SWAP4 POP PUSH2 0x6C5 DUP4 DUP6 DUP5 PUSH2 0x90B JUMP JUMPDEST PUSH2 0x6CE DUP4 PUSH2 0xA6E JUMP JUMPDEST DUP5 ADD SWAP1 POP SWAP4 SWAP3 POP POP POP JUMP JUMPDEST PUSH1 0x0 PUSH2 0x6E4 DUP3 PUSH2 0x87D JUMP JUMPDEST PUSH2 0x6EE DUP2 DUP6 PUSH2 0x888 JUMP JUMPDEST SWAP4 POP PUSH2 0x6FE DUP2 DUP6 PUSH1 0x20 DUP7 ADD PUSH2 0x91A JUMP JUMPDEST PUSH2 0x707 DUP2 PUSH2 0xA6E JUMP JUMPDEST DUP5 ADD SWAP2 POP POP SWAP3 SWAP2 POP POP JUMP JUMPDEST PUSH1 0x0 PUSH2 0x71D DUP3 PUSH2 0x87D JUMP JUMPDEST PUSH2 0x727 DUP2 DUP6 PUSH2 0x899 JUMP JUMPDEST SWAP4 POP PUSH2 0x737 DUP2 DUP6 PUSH1 0x20 DUP7 ADD PUSH2 0x91A JUMP JUMPDEST PUSH2 0x740 DUP2 PUSH2 0xA6E JUMP JUMPDEST DUP5 ADD SWAP2 POP POP SWAP3 SWAP2 POP POP JUMP JUMPDEST PUSH1 0x0 PUSH1 0xC0 DUP4 ADD PUSH1 0x0 DUP4 ADD MLOAD PUSH2 0x763 PUSH1 0x0 DUP7 ADD DUP3 PUSH2 0x7DB JUMP JUMPDEST POP PUSH1 0x20 DUP4 ADD MLOAD PUSH2 0x776 PUSH1 0x20 DUP7 ADD DUP3 PUSH2 0x67F JUMP JUMPDEST POP PUSH1 0x40 DUP4 ADD MLOAD DUP5 DUP3 SUB PUSH1 0x40 DUP7 ADD MSTORE PUSH2 0x78E DUP3 DUP3 PUSH2 0x6D9 JUMP JUMPDEST SWAP2 POP POP PUSH1 0x60 DUP4 ADD MLOAD DUP5 DUP3 SUB PUSH1 0x60 DUP7 ADD MSTORE PUSH2 0x7A8 DUP3 DUP3 PUSH2 0x6D9 JUMP JUMPDEST SWAP2 POP POP PUSH1 0x80 DUP4 ADD MLOAD PUSH2 0x7BD PUSH1 0x80 DUP7 ADD DUP3 PUSH2 0x7DB JUMP JUMPDEST POP PUSH1 0xA0 DUP4 ADD MLOAD PUSH2 0x7D0 PUSH1 0xA0 DUP7 ADD DUP3 PUSH2 0x69D JUMP JUMPDEST POP DUP1 SWAP2 POP POP SWAP3 SWAP2 POP POP JUMP JUMPDEST PUSH2 0x7E4 DUP2 PUSH2 0x8EF JUMP JUMPDEST DUP3 MSTORE POP POP JUMP JUMPDEST PUSH2 0x7F3 DUP2 PUSH2 0x8EF JUMP JUMPDEST DUP3 MSTORE POP POP JUMP JUMPDEST PUSH1 0x0 PUSH1 0x60 DUP3 ADD SWAP1 POP PUSH2 0x80E PUSH1 0x0 DUP4 ADD DUP8 PUSH2 0x68E JUMP JUMPDEST DUP2 DUP2 SUB PUSH1 0x20 DUP4 ADD MSTORE PUSH2 0x821 DUP2 DUP6 DUP8 PUSH2 0x6AC JUMP JUMPDEST SWAP1 POP PUSH2 0x830 PUSH1 0x40 DUP4 ADD DUP5 PUSH2 0x7EA JUMP JUMPDEST SWAP6 SWAP5 POP POP POP POP POP JUMP JUMPDEST PUSH1 0x0 PUSH1 0x20 DUP3 ADD SWAP1 POP DUP2 DUP2 SUB PUSH1 0x0 DUP4 ADD MSTORE PUSH2 0x853 DUP2 DUP5 PUSH2 0x712 JUMP JUMPDEST SWAP1 POP SWAP3 SWAP2 POP POP JUMP JUMPDEST PUSH1 0x0 PUSH1 0x20 DUP3 ADD SWAP1 POP DUP2 DUP2 SUB PUSH1 0x0 DUP4 ADD MSTORE PUSH2 0x875 DUP2 DUP5 PUSH2 0x74B JUMP JUMPDEST SWAP1 POP SWAP3 SWAP2 POP POP JUMP JUMPDEST PUSH1 0x0 DUP2 MLOAD SWAP1 POP SWAP2 SWAP1 POP JUMP JUMPDEST PUSH1 0x0 DUP3 DUP3 MSTORE PUSH1 0x20 DUP3 ADD SWAP1 POP SWAP3 SWAP2 POP POP JUMP JUMPDEST PUSH1 0x0 DUP3 DUP3 MSTORE PUSH1 0x20 DUP3 ADD SWAP1 POP SWAP3 SWAP2 POP POP JUMP JUMPDEST PUSH1 0x0 PUSH2 0x8B5 DUP3 PUSH2 0x8CF JUMP JUMPDEST SWAP1 POP SWAP2 SWAP1 POP JUMP JUMPDEST PUSH1 0x0 DUP2 SWAP1 POP PUSH2 0x8CA DUP3 PUSH2 0xA7F JUMP JUMPDEST SWAP2 SWAP1 POP JUMP JUMPDEST PUSH1 0x0 PUSH20 0xFFFFFFFFFFFFFFFFFFFFFFFFFFFFFFFFFFFFFFFF DUP3 AND SWAP1 POP SWAP2 SWAP1 POP JUMP JUMPDEST PUSH1 0x0 DUP2 SWAP1 POP SWAP2 SWAP1 POP JUMP JUMPDEST PUSH1 0x0 PUSH2 0x904 DUP3 PUSH2 0x8BC JUMP JUMPDEST SWAP1 POP SWAP2 SWAP1 POP JUMP JUMPDEST DUP3 DUP2 DUP4 CALLDATACOPY PUSH1 0x0 DUP4 DUP4 ADD MSTORE POP POP POP JUMP JUMPDEST PUSH1 0x0 JUMPDEST DUP4 DUP2 LT ISZERO PUSH2 0x938 JUMPI DUP1 DUP3 ADD MLOAD DUP2 DUP5 ADD MSTORE PUSH1 0x20 DUP2 ADD SWAP1 POP PUSH2 0x91D JUMP JUMPDEST DUP4 DUP2 GT ISZERO PUSH2 0x947 JUMPI PUSH1 0x0 DUP5 DUP5 ADD MSTORE JUMPDEST POP POP POP POP JUMP JUMPDEST PUSH1 0x0 PUSH1 0x2 DUP3 DIV SWAP1 POP PUSH1 0x1 DUP3 AND DUP1 PUSH2 0x965 JUMPI PUSH1 0x7F DUP3 AND SWAP2 POP JUMPDEST PUSH1 0x20 DUP3 LT DUP2 EQ ISZERO PUSH2 0x979 JUMPI PUSH2 0x978 PUSH2 0xA26 JUMP JUMPDEST JUMPDEST POP SWAP2 SWAP1 POP JUMP JUMPDEST PUSH1 0x0 PUSH2 0x98A DUP3 PUSH2 0x8EF JUMP JUMPDEST SWAP2 POP PUSH32 0xFFFFFFFFFFFFFFFFFFFFFFFFFFFFFFFFFFFFFFFFFFFFFFFFFFFFFFFFFFFFFFFF DUP3 EQ ISZERO PUSH2 0x9BD JUMPI PUSH2 0x9BC PUSH2 0x9C8 JUMP JUMPDEST JUMPDEST PUSH1 0x1 DUP3 ADD SWAP1 POP SWAP2 SWAP1 POP JUMP JUMPDEST PUSH32 0x4E487B7100000000000000000000000000000000000000000000000000000000 PUSH1 0x0 MSTORE PUSH1 0x11 PUSH1 0x4 MSTORE PUSH1 0x24 PUSH1 0x0 REVERT JUMPDEST PUSH32 0x4E487B7100000000000000000000000000000000000000000000000000000000 PUSH1 0x0 MSTORE PUSH1 0x21 PUSH1 0x4 MSTORE PUSH1 0x24 PUSH1 0x0 REVERT JUMPDEST PUSH32 0x4E487B7100000000000000000000000000000000000000000000000000000000 PUSH1 0x0 MSTORE PUSH1 0x22 PUSH1 0x4 MSTORE PUSH1 0x24 PUSH1 0x0 REVERT JUMPDEST PUSH1 0x0 DUP1 REVERT JUMPDEST PUSH1 0x0 DUP1 REVERT JUMPDEST PUSH1 0x0 DUP1 REVERT JUMPDEST PUSH1 0x0 DUP1 REVERT JUMPDEST PUSH1 0x0 DUP1 REVERT JUMPDEST PUSH1 0x0 PUSH1 0x1F NOT PUSH1 0x1F DUP4 ADD AND SWAP1 POP SWAP2 SWAP1 POP JUMP JUMPDEST PUSH1 0x3 DUP2 LT PUSH2 0xA90 JUMPI PUSH2 0xA8F PUSH2 0x9F7 JUMP JUMPDEST JUMPDEST POP JUMP JUMPDEST PUSH2 0xA9C DUP2 PUSH2 0x8AA JUMP JUMPDEST DUP2 EQ PUSH2 0xAA7 JUMPI PUSH1 0x0 DUP1 REVERT JUMPDEST POP JUMP JUMPDEST PUSH2 0xAB3 DUP2 PUSH2 0x8EF JUMP JUMPDEST DUP2 EQ PUSH2 0xABE JUMPI PUSH1 0x0 DUP1 REVERT JUMPDEST POP JUMP INVALID LOG2 PUSH5 0x6970667358 0x22 SLT KECCAK256 0xCF MULMOD CALL MSTORE8 LT 0xC9 PUSH20 0xEE945245A47C6A87394AC2F72B2C6BFB96A72AF SWAP12 0x2B MUL 0xD LOG3 PUSH5 0x736F6C6343 STOP ADDMOD SMOD STOP CALLER MLOAD PUSH14 0x61697145446352746F3843475153 PUSH15 0x714D4455486B6F746E4B486A6D4170 PUSH14 0x48534A4E75737454417061596D00 "
		},
		"gasEstimates": {
			"creation": {
				"codeDepositCost": "561400",
				"executionCost": "infinite",
				"totalCost": "infinite"
			},
			"external": {
				"addOrder(address,string,string,uint256)": "infinite",
				"getOrder(uint256)": "infinite",
				"ipns_path()": "infinite"
			}
		},
		"methodIdentifiers": {
			"addOrder(address,string,string,uint256)": "63623481",
			"getOrder(uint256)": "d09ef241",
			"ipns_path()": "ec0fcdeb"
		}
	},
	"abi": [
		{
			"anonymous": false,
			"inputs": [
				{
					"indexed": false,
					"internalType": "address",
					"name": "to",
					"type": "address"
				},
				{
					"indexed": false,
					"internalType": "string",
					"name": "chain",
					"type": "string"
				},
				{
					"indexed": false,
					"internalType": "uint256",
					"name": "amount",
					"type": "uint256"
				}
			],
			"name": "OrderedAdded",
			"type": "event"
		},
		{
			"inputs": [
				{
					"internalType": "address",
					"name": "to",
					"type": "address"
				},
				{
					"internalType": "string",
					"name": "token",
					"type": "string"
				},
				{
					"internalType": "string",
					"name": "chain",
					"type": "string"
				},
				{
					"internalType": "uint256",
					"name": "amount",
					"type": "uint256"
				}
			],
			"name": "addOrder",
			"outputs": [],
			"stateMutability": "nonpayable",
			"type": "function"
		},
		{
			"inputs": [
				{
					"internalType": "uint256",
					"name": "order_id",
					"type": "uint256"
				}
			],
			"name": "getOrder",
			"outputs": [
				{
					"components": [
						{
							"internalType": "uint256",
							"name": "order_id",
							"type": "uint256"
						},
						{
							"internalType": "address",
							"name": "to",
							"type": "address"
						},
						{
							"internalType": "string",
							"name": "token",
							"type": "string"
						},
						{
							"internalType": "string",
							"name": "chain",
							"type": "string"
						},
						{
							"internalType": "uint256",
							"name": "amount",
							"type": "uint256"
						},
						{
							"internalType": "enum HybridEx.State",
							"name": "state",
							"type": "uint8"
						}
					],
					"internalType": "struct HybridEx.Order",
					"name": "",
					"type": "tuple"
				}
			],
			"stateMutability": "view",
			"type": "function"
		},
		{
			"inputs": [],
			"name": "ipns_path",
			"outputs": [
				{
					"internalType": "string",
					"name": "",
					"type": "string"
				}
			],
			"stateMutability": "view",
			"type": "function"
		}
	]
}